{
  "address": "0x4a27D22e05a0FcC0018C667e89B3dc1758d3170D",
  "abi": [
    {
      "inputs": [],
      "stateMutability": "nonpayable",
      "type": "constructor"
    },
    {
      "anonymous": false,
      "inputs": [
        {
          "indexed": true,
          "internalType": "address",
          "name": "owner",
          "type": "address"
        },
        {
          "indexed": true,
          "internalType": "address",
          "name": "spender",
          "type": "address"
        },
        {
          "indexed": false,
          "internalType": "uint256",
          "name": "value",
          "type": "uint256"
        }
      ],
      "name": "Approval",
      "type": "event"
    },
    {
      "anonymous": false,
      "inputs": [
        {
          "indexed": true,
          "internalType": "address",
          "name": "previousOwner",
          "type": "address"
        },
        {
          "indexed": true,
          "internalType": "address",
          "name": "newOwner",
          "type": "address"
        }
      ],
      "name": "OwnershipTransferred",
      "type": "event"
    },
    {
      "anonymous": false,
      "inputs": [
        {
          "indexed": true,
          "internalType": "address",
          "name": "from",
          "type": "address"
        },
        {
          "indexed": true,
          "internalType": "address",
          "name": "to",
          "type": "address"
        },
        {
          "indexed": false,
          "internalType": "uint256",
          "name": "value",
          "type": "uint256"
        }
      ],
      "name": "Transfer",
      "type": "event"
    },
    {
      "inputs": [],
      "name": "DOMAIN_SEPARATOR",
      "outputs": [
        {
          "internalType": "bytes32",
          "name": "",
          "type": "bytes32"
        }
      ],
      "stateMutability": "view",
      "type": "function"
    },
    {
      "inputs": [
        {
          "internalType": "address",
          "name": "owner",
          "type": "address"
        },
        {
          "internalType": "address",
          "name": "spender",
          "type": "address"
        }
      ],
      "name": "allowance",
      "outputs": [
        {
          "internalType": "uint256",
          "name": "",
          "type": "uint256"
        }
      ],
      "stateMutability": "view",
      "type": "function"
    },
    {
      "inputs": [
        {
          "internalType": "address",
          "name": "spender",
          "type": "address"
        },
        {
          "internalType": "uint256",
          "name": "amount",
          "type": "uint256"
        }
      ],
      "name": "approve",
      "outputs": [
        {
          "internalType": "bool",
          "name": "",
          "type": "bool"
        }
      ],
      "stateMutability": "nonpayable",
      "type": "function"
    },
    {
      "inputs": [
        {
          "internalType": "address",
          "name": "account",
          "type": "address"
        }
      ],
      "name": "balanceOf",
      "outputs": [
        {
          "internalType": "uint256",
          "name": "",
          "type": "uint256"
        }
      ],
      "stateMutability": "view",
      "type": "function"
    },
    {
      "inputs": [
        {
          "internalType": "uint256",
          "name": "amount",
          "type": "uint256"
        }
      ],
      "name": "burn",
      "outputs": [],
      "stateMutability": "nonpayable",
      "type": "function"
    },
    {
      "inputs": [
        {
          "internalType": "address",
          "name": "account",
          "type": "address"
        },
        {
          "internalType": "uint256",
          "name": "amount",
          "type": "uint256"
        }
      ],
      "name": "burnFrom",
      "outputs": [],
      "stateMutability": "nonpayable",
      "type": "function"
    },
    {
      "inputs": [],
      "name": "decimals",
      "outputs": [
        {
          "internalType": "uint8",
          "name": "",
          "type": "uint8"
        }
      ],
      "stateMutability": "view",
      "type": "function"
    },
    {
      "inputs": [
        {
          "internalType": "address",
          "name": "spender",
          "type": "address"
        },
        {
          "internalType": "uint256",
          "name": "subtractedValue",
          "type": "uint256"
        }
      ],
      "name": "decreaseAllowance",
      "outputs": [
        {
          "internalType": "bool",
          "name": "",
          "type": "bool"
        }
      ],
      "stateMutability": "nonpayable",
      "type": "function"
    },
    {
      "inputs": [
        {
          "internalType": "address",
          "name": "spender",
          "type": "address"
        },
        {
          "internalType": "uint256",
          "name": "addedValue",
          "type": "uint256"
        }
      ],
      "name": "increaseAllowance",
      "outputs": [
        {
          "internalType": "bool",
          "name": "",
          "type": "bool"
        }
      ],
      "stateMutability": "nonpayable",
      "type": "function"
    },
    {
      "inputs": [
        {
          "internalType": "address",
          "name": "to",
          "type": "address"
        },
        {
          "internalType": "uint256",
          "name": "amount",
          "type": "uint256"
        }
      ],
      "name": "mint",
      "outputs": [],
      "stateMutability": "nonpayable",
      "type": "function"
    },
    {
      "inputs": [],
      "name": "name",
      "outputs": [
        {
          "internalType": "string",
          "name": "",
          "type": "string"
        }
      ],
      "stateMutability": "view",
      "type": "function"
    },
    {
      "inputs": [
        {
          "internalType": "address",
          "name": "owner",
          "type": "address"
        }
      ],
      "name": "nonces",
      "outputs": [
        {
          "internalType": "uint256",
          "name": "",
          "type": "uint256"
        }
      ],
      "stateMutability": "view",
      "type": "function"
    },
    {
      "inputs": [],
      "name": "owner",
      "outputs": [
        {
          "internalType": "address",
          "name": "",
          "type": "address"
        }
      ],
      "stateMutability": "view",
      "type": "function"
    },
    {
      "inputs": [
        {
          "internalType": "address",
          "name": "owner",
          "type": "address"
        },
        {
          "internalType": "address",
          "name": "spender",
          "type": "address"
        },
        {
          "internalType": "uint256",
          "name": "value",
          "type": "uint256"
        },
        {
          "internalType": "uint256",
          "name": "deadline",
          "type": "uint256"
        },
        {
          "internalType": "uint8",
          "name": "v",
          "type": "uint8"
        },
        {
          "internalType": "bytes32",
          "name": "r",
          "type": "bytes32"
        },
        {
          "internalType": "bytes32",
          "name": "s",
          "type": "bytes32"
        }
      ],
      "name": "permit",
      "outputs": [],
      "stateMutability": "nonpayable",
      "type": "function"
    },
    {
      "inputs": [],
      "name": "renounceOwnership",
      "outputs": [],
      "stateMutability": "nonpayable",
      "type": "function"
    },
    {
      "inputs": [],
      "name": "symbol",
      "outputs": [
        {
          "internalType": "string",
          "name": "",
          "type": "string"
        }
      ],
      "stateMutability": "view",
      "type": "function"
    },
    {
      "inputs": [],
      "name": "totalSupply",
      "outputs": [
        {
          "internalType": "uint256",
          "name": "",
          "type": "uint256"
        }
      ],
      "stateMutability": "view",
      "type": "function"
    },
    {
      "inputs": [
        {
          "internalType": "address",
          "name": "to",
          "type": "address"
        },
        {
          "internalType": "uint256",
          "name": "amount",
          "type": "uint256"
        }
      ],
      "name": "transfer",
      "outputs": [
        {
          "internalType": "bool",
          "name": "",
          "type": "bool"
        }
      ],
      "stateMutability": "nonpayable",
      "type": "function"
    },
    {
      "inputs": [
        {
          "internalType": "address",
          "name": "from",
          "type": "address"
        },
        {
          "internalType": "address",
          "name": "to",
          "type": "address"
        },
        {
          "internalType": "uint256",
          "name": "amount",
          "type": "uint256"
        }
      ],
      "name": "transferFrom",
      "outputs": [
        {
          "internalType": "bool",
          "name": "",
          "type": "bool"
        }
      ],
      "stateMutability": "nonpayable",
      "type": "function"
    },
    {
      "inputs": [
        {
          "internalType": "address",
          "name": "newOwner",
          "type": "address"
        }
      ],
      "name": "transferOwnership",
      "outputs": [],
      "stateMutability": "nonpayable",
      "type": "function"
    }
  ],
  "transactionHash": "0x67e997d5d709d64aab412a90991b025694757e164e12fe6e009c0fdfa79647f1",
  "args": [],
  "numDeployments": 1,
  "solcInputHash": "04047175dd073cbc799f7d7467674213",
  "bytecode": "0x6101406040523480156200001257600080fd5b50604051806040016040528060048152602001634341524560e01b81525080604051806040016040528060018152602001603160f81b815250604051806040016040528060048152602001634341524560e01b815250604051806040016040528060048152602001634341524560e01b8152508160039081620000969190620002d5565b506004620000a58282620002d5565b505050620000c2620000bc6200012a60201b60201c565b6200012e565b815160208084019190912082519183019190912060e08290526101008190524660a0527f8b73c3c69bb8fe3d512ecc4cf759cc79239f7b179b0ffacaa9a75d522b39400f6200011381848462000180565b6080523060c0526101205250620004209350505050565b3390565b600580546001600160a01b038381166001600160a01b0319831681179093556040519116919082907f8be0079c531659141344cd1fd0a4f28419497f9722a3daafe3b4186f6b6457e090600090a35050565b600083838346306040516020016200019d959493929190620003ca565b6040516020818303038152906040528051906020012090509392505050565b634e487b7160e01b600052604160045260246000fd5b634e487b7160e01b600052602260045260246000fd5b600281046001821680620001fd57607f821691505b602082108103620002125762000212620001d2565b50919050565b600062000229620002268381565b90565b92915050565b6200023a8362000218565b81546008840282811b60001990911b908116901990911617825550505050565b6000620002698184846200022f565b505050565b818110156200028d57620002846000826200025a565b6001016200026e565b5050565b601f82111562000269576000818152602090206020601f85010481016020851015620002ba5750805b620002ce6020601f8601048301826200026e565b5050505050565b81516001600160401b03811115620002f157620002f1620001bc565b620002fd8254620001e8565b6200030a82828562000291565b6020601f831160018114620003415760008415620003285750858201515b600019600886021c19811660028602178655506200039d565b600085815260208120601f198616915b8281101562000373578885015182556020948501946001909201910162000351565b86831015620003905784890151600019601f89166008021c191682555b6001600288020188555050505b505050505050565b805b82525050565b60006001600160a01b03821662000229565b620003a781620003ad565b60a08101620003da8288620003a5565b620003e96020830187620003a5565b620003f86040830186620003a5565b620004076060830185620003a5565b620004166080830184620003bf565b9695505050505050565b60805160a05160c05160e05161010051610120516117f36200047060003960006108cb0152600061090d015260006108ec015260006108500152600061087a015260006108a401526117f36000f3fe608060405234801561001057600080fd5b506004361061016c5760003560e01c8063715018a6116100cd578063a457c2d711610081578063d505accf11610066578063d505accf146102c3578063dd62ed3e146102d6578063f2fde38b1461030f57600080fd5b8063a457c2d71461029d578063a9059cbb146102b057600080fd5b80637ecebe00116100b25780637ecebe00146102695780638da5cb5b1461027c57806395d89b411461029557600080fd5b8063715018a61461024e57806379cc67901461025657600080fd5b80633644e5151161012457806340c10f191161010957806340c10f19146101fd57806342966c681461021257806370a082311461022557600080fd5b80633644e515146101e257806339509351146101ea57600080fd5b806318160ddd1161015557806318160ddd146101af57806323b872dd146101c0578063313ce567146101d357600080fd5b806306fdde0314610171578063095ea7b31461018f575b600080fd5b610179610322565b6040516101869190610d9e565b60405180910390f35b6101a261019d366004610df7565b6103b4565b6040516101869190610e3e565b6002545b6040516101869190610e52565b6101a26101ce366004610e60565b6103ce565b60126040516101869190610eb9565b6101b36103f2565b6101a26101f8366004610df7565b610401565b61021061020b366004610df7565b610440565b005b610210610220366004610ec7565b610456565b6101b3610233366004610ef0565b6001600160a01b031660009081526020819052604090205490565b610210610463565b610210610264366004610df7565b610477565b6101b3610277366004610ef0565b61048c565b6005546001600160a01b03166040516101869190610f1a565b6101796104aa565b6101a26102ab366004610df7565b6104b9565b6101a26102be366004610df7565b610516565b6102106102d1366004610f3c565b610524565b6101b36102e4366004610fdb565b6001600160a01b03918216600090815260016020908152604080832093909416825291909152205490565b61021061031d366004610ef0565b610606565b60606003805461033190611024565b80601f016020809104026020016040519081016040528092919081815260200182805461035d90611024565b80156103aa5780601f1061037f576101008083540402835291602001916103aa565b820191906000526020600020905b81548152906001019060200180831161038d57829003601f168201915b5050505050905090565b6000336103c281858561063d565b60019150505b92915050565b6000336103dc8582856106f1565b6103e7858585610753565b506001949350505050565b60006103fc610843565b905090565b3360008181526001602090815260408083206001600160a01b03871684529091528120549091906103c2908290869061043b908790611060565b61063d565b610448610931565b610452828261095b565b5050565b61046033826109f1565b50565b61046b610931565b6104756000610aa8565b565b6104828233836106f1565b61045282826109f1565b6001600160a01b0381166000908152600660205260408120546103c8565b60606004805461033190611024565b3360008181526001602090815260408083206001600160a01b0387168452909152812054909190838110156105095760405162461bcd60e51b8152600401610500906110d0565b60405180910390fd5b6103e7828686840361063d565b6000336103c2818585610753565b834211156105445760405162461bcd60e51b815260040161050090611117565b60007f6e71edae12b1b97f4d1f60370fef10105fa2faae0126114a169c64845d6126c98888886105738c610b12565b8960405160200161058996959493929190611127565b60405160208183030381529060405280519060200120905060006105ac82610b3a565b905060006105bc82878787610b4d565b9050896001600160a01b0316816001600160a01b0316146105ef5760405162461bcd60e51b8152600401610500906111b5565b6105fa8a8a8a61063d565b50505050505050505050565b61060e610931565b6001600160a01b0381166106345760405162461bcd60e51b81526004016105009061121f565b61046081610aa8565b6001600160a01b0383166106635760405162461bcd60e51b815260040161050090611289565b6001600160a01b0382166106895760405162461bcd60e51b8152600401610500906112f3565b6001600160a01b0380841660008181526001602090815260408083209487168084529490915290819020849055517f8c5be1e5ebec7d5bd14f71427d1e84f3dd0314c0f7b2291e5b200ac8c7c3b925906106e4908590610e52565b60405180910390a3505050565b6001600160a01b03838116600090815260016020908152604080832093861683529290522054600019811461074d57818110156107405760405162461bcd60e51b815260040161050090611337565b61074d848484840361063d565b50505050565b6001600160a01b0383166107795760405162461bcd60e51b8152600401610500906113a1565b6001600160a01b03821661079f5760405162461bcd60e51b81526004016105009061140b565b6001600160a01b038316600090815260208190526040902054818110156107d85760405162461bcd60e51b815260040161050090611475565b6001600160a01b0380851660008181526020819052604080822086860390559286168082529083902080548601905591517fddf252ad1be2c89b69c2b068fc378daa952ba7f163c4a11628f55a4df523b3ef90610836908690610e52565b60405180910390a361074d565b6000306001600160a01b037f00000000000000000000000000000000000000000000000000000000000000001614801561089c57507f000000000000000000000000000000000000000000000000000000000000000046145b156108c657507f000000000000000000000000000000000000000000000000000000000000000090565b6103fc7f00000000000000000000000000000000000000000000000000000000000000007f00000000000000000000000000000000000000000000000000000000000000007f0000000000000000000000000000000000000000000000000000000000000000610b75565b6005546001600160a01b031633146104755760405162461bcd60e51b8152600401610500906114b7565b6001600160a01b0382166109815760405162461bcd60e51b8152600401610500906114fb565b80600260008282546109939190611060565b90915550506001600160a01b038216600081815260208190526040808220805485019055517fddf252ad1be2c89b69c2b068fc378daa952ba7f163c4a11628f55a4df523b3ef906109e5908590610e52565b60405180910390a35050565b6001600160a01b038216610a175760405162461bcd60e51b815260040161050090611565565b6001600160a01b03821660009081526020819052604090205481811015610a505760405162461bcd60e51b8152600401610500906115cf565b6001600160a01b0383166000818152602081905260408082208585039055600280548690039055519091907fddf252ad1be2c89b69c2b068fc378daa952ba7f163c4a11628f55a4df523b3ef906106e4908690610e52565b600580546001600160a01b038381167fffffffffffffffffffffffff0000000000000000000000000000000000000000831681179093556040519116919082907f8be0079c531659141344cd1fd0a4f28419497f9722a3daafe3b4186f6b6457e090600090a35050565b6001600160a01b03811660009081526006602052604090208054600181018255905b50919050565b60006103c8610b47610843565b83610baf565b6000806000610b5e87878787610be2565b91509150610b6b81610c99565b5095945050505050565b60008383834630604051602001610b909594939291906115df565b6040516020818303038152906040528051906020012090509392505050565b60008282604051602001610bc492919061162b565b60405160208183030381529060405280519060200120905092915050565b6000807f7fffffffffffffffffffffffffffffff5d576e7357a4501ddfe92f46681b20a0831115610c195750600090506003610c90565b600060018787878760405160008152602001604052604051610c3e9493929190611677565b6020604051602081039080840390855afa158015610c60573d6000803e3d6000fd5b5050604051601f1901519150506001600160a01b038116610c8957600060019250925050610c90565b9150600090505b94509492505050565b6000816004811115610cad57610cad6116b5565b03610cb55750565b6001816004811115610cc957610cc96116b5565b03610ce65760405162461bcd60e51b8152600401610500906116ff565b6002816004811115610cfa57610cfa6116b5565b03610d175760405162461bcd60e51b815260040161050090611743565b6003816004811115610d2b57610d2b6116b5565b036104605760405162461bcd60e51b8152600401610500906117ad565b60005b83811015610d63578181015183820152602001610d4b565b50506000910152565b6000610d76825190565b808452602084019350610d8d818560208601610d48565b601f01601f19169290920192915050565b60208082528101610daf8184610d6c565b9392505050565b60006001600160a01b0382166103c8565b610dd081610db6565b811461046057600080fd5b80356103c881610dc7565b80610dd0565b80356103c881610de6565b60008060408385031215610e0d57610e0d600080fd5b6000610e198585610ddb565b9250506020610e2a85828601610dec565b9150509250929050565b8015155b82525050565b602081016103c88284610e34565b80610e38565b602081016103c88284610e4c565b600080600060608486031215610e7857610e78600080fd5b6000610e848686610ddb565b9350506020610e9586828701610ddb565b9250506040610ea686828701610dec565b9150509250925092565b60ff8116610e38565b602081016103c88284610eb0565b600060208284031215610edc57610edc600080fd5b6000610ee88484610dec565b949350505050565b600060208284031215610f0557610f05600080fd5b6000610ee88484610ddb565b610e3881610db6565b602081016103c88284610f11565b60ff8116610dd0565b80356103c881610f28565b600080600080600080600060e0888a031215610f5a57610f5a600080fd5b6000610f668a8a610ddb565b9750506020610f778a828b01610ddb565b9650506040610f888a828b01610dec565b9550506060610f998a828b01610dec565b9450506080610faa8a828b01610f31565b93505060a0610fbb8a828b01610dec565b92505060c0610fcc8a828b01610dec565b91505092959891949750929550565b60008060408385031215610ff157610ff1600080fd5b6000610ffd8585610ddb565b9250506020610e2a85828601610ddb565b634e487b7160e01b600052602260045260246000fd5b60028104600182168061103857607f821691505b602082108103610b3457610b3461100e565b634e487b7160e01b600052601160045260246000fd5b808201808211156103c8576103c861104a565b602581526000602082017f45524332303a2064656372656173656420616c6c6f77616e63652062656c6f7781527f207a65726f000000000000000000000000000000000000000000000000000000602082015291505b5060400190565b602080825281016103c881611073565b601d81526000602082017f45524332305065726d69743a206578706972656420646561646c696e65000000815291505b5060200190565b602080825281016103c8816110e0565b60c081016111358289610e4c565b6111426020830188610f11565b61114f6040830187610f11565b61115c6060830186610e4c565b6111696080830185610e4c565b61117660a0830184610e4c565b979650505050505050565b601e81526000602082017f45524332305065726d69743a20696e76616c6964207369676e6174757265000081529150611110565b602080825281016103c881611181565b602681526000602082017f4f776e61626c653a206e6577206f776e657220697320746865207a65726f206181527f6464726573730000000000000000000000000000000000000000000000000000602082015291506110c9565b602080825281016103c8816111c5565b602481526000602082017f45524332303a20617070726f76652066726f6d20746865207a65726f2061646481527f7265737300000000000000000000000000000000000000000000000000000000602082015291506110c9565b602080825281016103c88161122f565b602281526000602082017f45524332303a20617070726f766520746f20746865207a65726f20616464726581527f7373000000000000000000000000000000000000000000000000000000000000602082015291506110c9565b602080825281016103c881611299565b601d81526000602082017f45524332303a20696e73756666696369656e7420616c6c6f77616e636500000081529150611110565b602080825281016103c881611303565b602581526000602082017f45524332303a207472616e736665722066726f6d20746865207a65726f20616481527f6472657373000000000000000000000000000000000000000000000000000000602082015291506110c9565b602080825281016103c881611347565b602381526000602082017f45524332303a207472616e7366657220746f20746865207a65726f206164647281527f6573730000000000000000000000000000000000000000000000000000000000602082015291506110c9565b602080825281016103c8816113b1565b602681526000602082017f45524332303a207472616e7366657220616d6f756e742065786365656473206281527f616c616e63650000000000000000000000000000000000000000000000000000602082015291506110c9565b602080825281016103c88161141b565b60208082527f4f776e61626c653a2063616c6c6572206973206e6f7420746865206f776e657291019081526000611110565b602080825281016103c881611485565b601f81526000602082017f45524332303a206d696e7420746f20746865207a65726f20616464726573730081529150611110565b602080825281016103c8816114c7565b602181526000602082017f45524332303a206275726e2066726f6d20746865207a65726f2061646472657381527f7300000000000000000000000000000000000000000000000000000000000000602082015291506110c9565b602080825281016103c88161150b565b602281526000602082017f45524332303a206275726e20616d6f756e7420657863656564732062616c616e81527f6365000000000000000000000000000000000000000000000000000000000000602082015291506110c9565b602080825281016103c881611575565b60a081016115ed8288610e4c565b6115fa6020830187610e4c565b6116076040830186610e4c565b6116146060830185610e4c565b6116216080830184610f11565b9695505050505050565b7f19010000000000000000000000000000000000000000000000000000000000008152600201600061165d8285610e4c565b60208201915061166d8284610e4c565b5060200192915050565b608081016116858287610e4c565b6116926020830186610eb0565b61169f6040830185610e4c565b6116ac6060830184610e4c565b95945050505050565b634e487b7160e01b600052602160045260246000fd5b601881526000602082017f45434453413a20696e76616c6964207369676e6174757265000000000000000081529150611110565b602080825281016103c8816116cb565b601f81526000602082017f45434453413a20696e76616c6964207369676e6174757265206c656e6774680081529150611110565b602080825281016103c88161170f565b602281526000602082017f45434453413a20696e76616c6964207369676e6174757265202773272076616c81527f7565000000000000000000000000000000000000000000000000000000000000602082015291506110c9565b602080825281016103c88161175356fea2646970667358221220932e09e9defe0fcbada7c0c06c9001d58d16825b2397ec6dfc7cecbda8a7267564736f6c63430008110033",
  "devdoc": {
    "custom:security-contact": "bryan@gypsy.city",
    "kind": "dev",
    "methods": {
      "DOMAIN_SEPARATOR()": {
        "details": "See {IERC20Permit-DOMAIN_SEPARATOR}."
      },
      "allowance(address,address)": {
        "details": "See {IERC20-allowance}."
      },
      "approve(address,uint256)": {
        "details": "See {IERC20-approve}. NOTE: If `amount` is the maximum `uint256`, the allowance is not updated on `transferFrom`. This is semantically equivalent to an infinite approval. Requirements: - `spender` cannot be the zero address."
      },
      "balanceOf(address)": {
        "details": "See {IERC20-balanceOf}."
      },
      "burn(uint256)": {
        "details": "Destroys `amount` tokens from the caller. See {ERC20-_burn}."
      },
      "burnFrom(address,uint256)": {
        "details": "Destroys `amount` tokens from `account`, deducting from the caller's allowance. See {ERC20-_burn} and {ERC20-allowance}. Requirements: - the caller must have allowance for ``accounts``'s tokens of at least `amount`."
      },
      "decimals()": {
        "details": "Returns the number of decimals used to get its user representation. For example, if `decimals` equals `2`, a balance of `505` tokens should be displayed to a user as `5.05` (`505 / 10 ** 2`). Tokens usually opt for a value of 18, imitating the relationship between Ether and Wei. This is the value {ERC20} uses, unless this function is overridden; NOTE: This information is only used for _display_ purposes: it in no way affects any of the arithmetic of the contract, including {IERC20-balanceOf} and {IERC20-transfer}."
      },
      "decreaseAllowance(address,uint256)": {
        "details": "Atomically decreases the allowance granted to `spender` by the caller. This is an alternative to {approve} that can be used as a mitigation for problems described in {IERC20-approve}. Emits an {Approval} event indicating the updated allowance. Requirements: - `spender` cannot be the zero address. - `spender` must have allowance for the caller of at least `subtractedValue`."
      },
      "increaseAllowance(address,uint256)": {
        "details": "Atomically increases the allowance granted to `spender` by the caller. This is an alternative to {approve} that can be used as a mitigation for problems described in {IERC20-approve}. Emits an {Approval} event indicating the updated allowance. Requirements: - `spender` cannot be the zero address."
      },
      "name()": {
        "details": "Returns the name of the token."
      },
      "nonces(address)": {
        "details": "See {IERC20Permit-nonces}."
      },
      "owner()": {
        "details": "Returns the address of the current owner."
      },
      "permit(address,address,uint256,uint256,uint8,bytes32,bytes32)": {
        "details": "See {IERC20Permit-permit}."
      },
      "renounceOwnership()": {
        "details": "Leaves the contract without owner. It will not be possible to call `onlyOwner` functions anymore. Can only be called by the current owner. NOTE: Renouncing ownership will leave the contract without an owner, thereby removing any functionality that is only available to the owner."
      },
      "symbol()": {
        "details": "Returns the symbol of the token, usually a shorter version of the name."
      },
      "totalSupply()": {
        "details": "See {IERC20-totalSupply}."
      },
      "transfer(address,uint256)": {
        "details": "See {IERC20-transfer}. Requirements: - `to` cannot be the zero address. - the caller must have a balance of at least `amount`."
      },
      "transferFrom(address,address,uint256)": {
        "details": "See {IERC20-transferFrom}. Emits an {Approval} event indicating the updated allowance. This is not required by the EIP. See the note at the beginning of {ERC20}. NOTE: Does not update the allowance if the current allowance is the maximum `uint256`. Requirements: - `from` and `to` cannot be the zero address. - `from` must have a balance of at least `amount`. - the caller must have allowance for ``from``'s tokens of at least `amount`."
      },
      "transferOwnership(address)": {
        "details": "Transfers ownership of the contract to a new account (`newOwner`). Can only be called by the current owner."
      }
    },
    "version": 1
  },
  "userdoc": {
    "kind": "user",
    "methods": {},
    "version": 1
  },
  "storageLayout": {
    "storage": [
      {
        "astId": 128,
        "contract": "contracts/CareToken.sol:CareToken",
        "label": "_balances",
        "offset": 0,
        "slot": "0",
        "type": "t_mapping(t_address,t_uint256)"
      },
      {
        "astId": 134,
        "contract": "contracts/CareToken.sol:CareToken",
        "label": "_allowances",
        "offset": 0,
        "slot": "1",
        "type": "t_mapping(t_address,t_mapping(t_address,t_uint256))"
      },
      {
        "astId": 136,
        "contract": "contracts/CareToken.sol:CareToken",
        "label": "_totalSupply",
        "offset": 0,
        "slot": "2",
        "type": "t_uint256"
      },
      {
        "astId": 138,
        "contract": "contracts/CareToken.sol:CareToken",
        "label": "_name",
        "offset": 0,
        "slot": "3",
        "type": "t_string_storage"
      },
      {
        "astId": 140,
        "contract": "contracts/CareToken.sol:CareToken",
        "label": "_symbol",
        "offset": 0,
        "slot": "4",
        "type": "t_string_storage"
      },
      {
        "astId": 7,
        "contract": "contracts/CareToken.sol:CareToken",
        "label": "_owner",
        "offset": 0,
        "slot": "5",
        "type": "t_address"
      },
      {
        "astId": 869,
        "contract": "contracts/CareToken.sol:CareToken",
        "label": "_nonces",
        "offset": 0,
        "slot": "6",
        "type": "t_mapping(t_address,t_struct(Counter)1082_storage)"
      },
      {
        "astId": 877,
        "contract": "contracts/CareToken.sol:CareToken",
        "label": "_PERMIT_TYPEHASH_DEPRECATED_SLOT",
        "offset": 0,
        "slot": "7",
        "type": "t_bytes32"
      }
    ],
    "types": {
      "t_address": {
        "encoding": "inplace",
        "label": "address",
        "numberOfBytes": "20"
      },
      "t_bytes32": {
        "encoding": "inplace",
        "label": "bytes32",
        "numberOfBytes": "32"
      },
      "t_mapping(t_address,t_mapping(t_address,t_uint256))": {
        "encoding": "mapping",
        "key": "t_address",
        "label": "mapping(address => mapping(address => uint256))",
        "numberOfBytes": "32",
        "value": "t_mapping(t_address,t_uint256)"
      },
      "t_mapping(t_address,t_struct(Counter)1082_storage)": {
        "encoding": "mapping",
        "key": "t_address",
        "label": "mapping(address => struct Counters.Counter)",
        "numberOfBytes": "32",
        "value": "t_struct(Counter)1082_storage"
      },
      "t_mapping(t_address,t_uint256)": {
        "encoding": "mapping",
        "key": "t_address",
        "label": "mapping(address => uint256)",
        "numberOfBytes": "32",
        "value": "t_uint256"
      },
      "t_string_storage": {
        "encoding": "bytes",
        "label": "string",
        "numberOfBytes": "32"
      },
      "t_struct(Counter)1082_storage": {
        "encoding": "inplace",
        "label": "struct Counters.Counter",
        "members": [
          {
            "astId": 1081,
            "contract": "contracts/CareToken.sol:CareToken",
            "label": "_value",
            "offset": 0,
            "slot": "0",
            "type": "t_uint256"
          }
        ],
        "numberOfBytes": "32"
      },
      "t_uint256": {
        "encoding": "inplace",
        "label": "uint256",
        "numberOfBytes": "32"
      }
    }
  }
}